{
  "abi": [
    {
      "inputs": [
        {
          "internalType": "uint256",
          "name": "amount",
          "type": "uint256"
        }
      ],
      "name": "burn",
      "outputs": [],
      "stateMutability": "nonpayable",
      "type": "function"
    }
  ],
  "bytecode": {
    "object": "0x60806040526002600055348015601457600080fd5b506090806100236000396000f3fe6080604052348015600f57600080fd5b506004361060285760003560e01c806342966c6814602d575b600080fd5b604060383660046042565b506004600055565b005b600060208284031215605357600080fd5b503591905056fea2646970667358221220a41c8dff3564f5fcba2d70014dbb6c1e7a6f56f78e3fb4c0fbab8acb19d746a564736f6c63430008120033",
    "linkReferences": {}
  },
  "methodIdentifiers": {
    "burn(uint256)": "42966c68"
  },
  "id": 0
}