{
  "abi": [
    {
      "inputs": [
        {
          "internalType": "bytes16",
          "name": "",
          "type": "bytes16"
        }
      ],
      "name": "collate_propagate_storage",
      "outputs": [],
      "stateMutability": "nonpayable",
      "type": "function"
    }
  ],
  "bytecode": {
    "object": "0x608060405234801561001057600080fd5b5060b08061001f6000396000f3fe6080604052348015600f57600080fd5b506004361060285760003560e01c806342966c6814602d575b600080fd5b604060383660046042565b506004600055565b005b600060208284031215605357600080fd5b81356fffffffffffffffffffffffffffffffff1981168114607357600080fd5b939250505056fea2646970667358221220a5bf6af5cfb8cae070edda353d9cd3aec700e5b7c111579a3d6689ba7124b2db64736f6c63430008120033",
    "linkReferences": {}
  },
  "methodIdentifiers": {
    "collate_propagate_storage(bytes16)": "42966c68"
  },
  "id": 0
}